:100000000C940C010C9432010C9432010C943201CA
:100010000C9432010C9432010C9432010C94320194
:100020000C9432010C9432010C9432010C94320184
:100030000C9432010C9432010C9432010C94320174
:100040000C9432010C9432010C9432010C94320164
:100050000C9432010C9432010C9432010C94320154
:100060000C9432010C9486020C9432010C943201EF
:100070000C9432010C9432010C9432010C94320134
:100080000C9432010C9432010C9432010C94320124
:100090000C9432010C9432010C9432010C94320114
:1000A0000C9432010C9432010C9432010C94320104
:1000B0000C9432010C9432010C9432010C943201F4
:1000C0000C9432010C9432010C9432010C943201E4
:1000D0000C9432010C9432010C9432010C943201D4
:1000E0000C9432010C9432010C9465030C9432018F
:1000F0000C9432010C9432010C9432010C943201B4
:100100000C9432010C9432010C9432010C943201A3
:100110000C9432010C9432010C9432010C94320193
:100120000C9432010C9432010C9432010C94320183
:100130000C9432010C9432010C9432010C94320173
:100140000C9432010C9432010C9432010C94320163
:100150000C9432010C9432010C9432010C94320153
:100160000C9432010C9432010C9432010C94320143
:100170000C9432010C9432010C94F2030C94320171
:100180000C9432010C9432010C9432010C94320123
:100190000C9432010C9432010C9432010C94320113
:1001A0000C9432010C9432010C9432010C94320103
:1001B0000C9432010C9432010C9432010C943201F3
:1001C0000C9432010C9432010C9432010C943201E3
:1001D0000C9432010C9432010C9432010C943201D3
:1001E0000C9432010C9432010C9432010C943201C3
:1001F0000C9432010C9432010C9432010C94F002F4
:100200000C94FA010C9402020C94B8030C94C203EF
:100210000C94E1020C94110211241FBECFEFCDBF4C
:10022000DFE3DEBF00E00CBF18BE19BE1ABE1BBE66
:1002300010E2A0E0B0E2E6EAF0E100E00BBF02C0AD
:1002400007900D92AC3CB107D9F71BBE25E2ACEC90
:10025000B0E201C01D92A434B207E1F70E94EA01A6
:100260000C9451080C940000CF93DF93EC0128818B
:100270003981F901EE0FFF1FDF01A20FB31FAA0F93
:10028000BB1FA353BF4D8C819D8114968D939C936E
:100290001597FD018A819B8182839383DF91CF91A2
:1002A0000895EF92FF920F931F93CF93DF932091C6
:1002B000CC20211170C0E72EF62EEC0181E0809356
:1002C000CC20862F972F0E942F048C01FE01EE0F69
:1002D000FF1FEC0FFD1FEE0FFF1FE353FF4D0480C8
:1002E000F581E02D6F2D7E2D1995C130D10521F1BD
:1002F000C230D105A1F1CD2B09F046C0EF92FF929B
:1003000086E290E29F938F930E94590564E570E224
:10031000C8010E9450050F900F900F900F90892BED
:1003200021F484E590E20E946D05E091D520F091E2
:10033000D620C801199528C0EF92FF928EE590E271
:100340009F938F930E945905E091CF20F091D02088
:10035000C80119950F900F900F900F9015C0F801DC
:1003600080811F928F9382E990E29F938F930E94E6
:100370005905E091D520F091D6208DEA90E21995AB
:100380000F900F900F900F90C8010E94C704109219
:10039000CC2081E001C080E0DF91CF911F910F91CF
:1003A000FF90EF9008950E9439030E945A020E9424
:1003B000C3030895E0E5F0E0808182608083E1E599
:1003C000F0E0808181FFFDCF88ED84BF81E08093E4
:1003D000400008950E94DA010E94D30178948CE0D5
:1003E00090E2809340259093412584EC90E20E9416
:1003F0006D05FFCFE0EAF8E0918195FFFDCF809396
:10040000A0080895CF93DF93EC018881882331F011
:1004100021960E94FA0189918111FBCFDF91CF9142
:100420000895CF93DF93EC013091302390912F23E7
:100430003917D1F38BE49DE10197F1F700C000007B
:100440006150710959F1E0912F23EF5FE0932F2361
:10045000F0E0E35DFE4D80818883909130238091B0
:100460002F239817F1F0DE01119620E030E010C044
:10047000E0912F23EF5FE0932F23F0E0E35DFE4D4B
:1004800090819D934091302390912F23491759F0EB
:100490002F5F3F4F2617370758F305C020E030E0A5
:1004A00002C020E030E0FE01E20FF31F1182DF9175
:1004B000CF91089586E090E20E943401F894E0E440
:1004C000F6E088E1838B828BA4E4B6E08C918860AF
:1004D0008C938C9184608C9388E08583808384E006
:1004E0008283E0EAF8E083E085838381807C806119
:1004F00083831092A70882E28093A6088481807E7D
:100500008861848387E08093A20008951F920F92F0
:100510000FB60F92112408B60F9218BE09B60F92AB
:1005200019BE0BB60F921BBE2F933F934F935F9351
:100530006F937F938F939F93AF93BF93EF93FF93AB
:100540002091A008E0913023EF5FE0933023F0E0AA
:10055000E35DFE4D208380912D2390912E23019603
:1005600080932D2390932E232A3061F460912D23C4
:1005700070912E2380E090E00E94510110922D2373
:1005800010922E23FF91EF91BF91AF919F918F9188
:100590007F916F915F914F913F912F910F900BBE83
:1005A0000F9009BE0F9008BE0F900FBE0F901F90C6
:1005B0001895E0EAFAE0918195FFFDCF8093A00ABB
:1005C0000895CF93DF93EC018881882331F0219641
:1005D0000E94D90289918111FBCFDF91CF910895BB
:1005E000CF93DF93EC013091342590913325391767
:1005F000D1F38DEE92E00197F1F700C00000615059
:10060000710959F1E0913325EF5FE0933325F0E074
:10061000EF5CFC4D80818883909134258091332557
:100620009817F1F0DE01119620E030E010C0E09163
:100630003325EF5FE0933325F0E0EF5CFC4D9081D4
:100640009D934091342590913325491759F02F5FA0
:100650003F4F2617370758F305C020E030E002C0AF
:1006600020E030E0FE01E20FF31F1182DF91CF9115
:1006700008958AE190E20E943401F894E0E8F6E0FF
:1006800088E1838B828BA4E8B6E08C9188608C93A0
:100690008C9184608C9388E08583808384E082835E
:1006A000E0EAFAE083E085838381807C8061838354
:1006B0001092A70882E28093A6088481807E8861D8
:1006C000848387E08093A20008951F920F920FB653
:1006D0000F92112408B60F9218BE09B60F9219BED8
:1006E0000BB60F921BBE2F933F934F935F936F9365
:1006F0007F938F939F93AF93BF93EF93FF9320913B
:10070000A00AE0913425EF5FE0933425F0E0EF5C40
:10071000FC4D208380913125909132250196809364
:100720003125909332252A3061F460913125709102
:10073000322580E090E00E94510110923125109204
:100740003225FF91EF91BF91AF919F918F917F9152
:100750006F915F914F913F912F910F900BBE0F9032
:1007600009BE0F9008BE0F900FBE0F901F901895F6
:1007700020913525FC012083E7ECF7E0808188603B
:1007800080830895089580E290E20E94340182E01F
:1007900090E080B991B981E090E082B993B9E0EC42
:1007A000F7E088E1828BA4ECB7E08C9184608C93B5
:1007B00082E0828B84E0828783E0818781818B7FE6
:1007C000818381E08093A2008081886080838C9106
:1007D0008C93E7ECF7E0808188608083808188607B
:1007E000808308951F920F920FB60F92112408B6BE
:1007F0000F9218BE09B60F9219BE0BB60F921BBE10
:100800002F933F934F935F936F937F938F939F9318
:10081000AF93BF93EF93FF93E7ECF7E0808188609D
:100820008083E0913625F091372580E090E019959E
:10083000FF91EF91BF91AF919F918F917F916F91B8
:100840005F914F913F912F910F900BBE0F9009BE7A
:100850000F9008BE0F900FBE0F901F9018950F932A
:100860001F93CF93DF938230910510F482E090E0E4
:10087000E0913C25F0913D2520E030E0A0E0B0E0A3
:10088000309719F14081518102811381481759072E
:10089000C8F08417950769F4109731F012960C93FD
:1008A000129713961C9327C000933C2510933D2567
:1008B00022C02115310519F04217530718F49A0187
:1008C000BD01EF01DF01F801DBCF21153105F9F0A2
:1008D000281B390B2430310580F48A819B816115F6
:1008E000710521F0FB018283938304C080933C2532
:1008F00090933D25FE01329644C0FE01E20FF31FA6
:100900008193919322503109288339833AC02091F1
:100910003A2530913B25232B41F420910220309140
:10092000032020933A2530933B25209100203091DD
:1009300001202115310541F42DB73EB74091042027
:1009400050910520241B350BE0913A25F0913B2571
:10095000E217F307A0F42E1B3F0B2817390778F096
:10096000AC014E5F5F4F2417350748F04E0F5F1FF5
:1009700040933A2550933B258193919302C0E0E048
:10098000F0E0CF01DF91CF911F910F910895CF93A8
:10099000DF93009709F481C0FC0132971282138221
:1009A000A0913C25B0913D25109781F420813181A3
:1009B000820F931F20913A2530913B252817390744
:1009C00051F5E0933A25F0933B2567C0ED0120E017
:1009D00030E0CE17DF0740F44A815B819E0141156C
:1009E0005105F1F0EA01F5CFC283D38340815181F3
:1009F000840F951FC817D90759F488819981840FEE
:100A0000951F0296808391838A819B818283938341
:100A10002115310529F4E0933C25F0933D253DC097
:100A2000E901EA83FB8349915991C40FD51FEC1763
:100A3000FD0761F480819181840F951F0296E90181
:100A400088839983828193818A839B83E0E0F0E0AD
:100A500012968D919C911397009719F0FD01DC017E
:100A6000F7CF8D919C9111979D012E5F3F4F820F83
:100A7000931F20913A2530913B252817390769F4B7
:100A8000309729F410923C2510923D2502C0128225
:100A90001382A0933A25B0933B25DF91CF9108951F
:100AA000FB01DC018D91019080190110D9F3990BA4
:100AB0000895CF93DF93CDB7DEB7AE014A5F5F4FA6
:100AC000FA0161917191AF0180914025909141258A
:100AD0000E949D05DF91CF9108950F931F93CF93AF
:100AE000DF93E0914025F0914125238121FF1BC038
:100AF0008C01D0E0C0E0F80181918F016091402528
:100B000070914125DB011896ED91FC91199788238E
:100B100031F01995892B79F3DFEFCFEFECCF8AE035
:100B20001995892B19F08FEF9FEF02C08D2F9C2F05
:100B3000DF91CF911F910F9108952F923F924F9285
:100B40005F926F927F928F929F92AF92BF92CF925D
:100B5000DF92EF92FF920F931F93CF93DF93CDB766
:100B6000DEB72B97CDBFDEBF6C017B018A01FC0194
:100B700016821782838181FFCCC1CE0101963C0190
:100B8000F6019381F70193FD859193FF81917F0198
:100B9000882309F4BAC1853239F493FD859193FF16
:100BA00081917F01853229F4B60190E00E94B70758
:100BB000E7CF912C212C312CFFE1F315D8F08B32AB
:100BC00079F038F4803279F08332A1F4232D20615A
:100BD0001DC08D3261F0803369F4232D216016C071
:100BE000832D8260382EE32DE4603E2E2AC0F32D43
:100BF000F8601DC037FC2DC020ED280F2A3040F0D2
:100C00008E32B9F436FC81C1232D2064322E19C0F6
:100C100036FE06C08AE0989E200D1124922E11C047
:100C2000EAE02E9E200D1124222EF32DF0623F2E9D
:100C300008C08C3621F4832D8068382E02C0883697
:100C400041F4F70193FD859193FF81917F0181111B
:100C5000B3CF982F9F7D9554933028F40C5F1F4F8E
:100C60009FE399830DC0833631F0833771F083356C
:100C700009F059C021C0F801808189830E5F1F4FA0
:100C800088248394912C530113C02801F2E04F0E65
:100C9000511CF801A080B18036FE03C0692D70E0C0
:100CA00002C06FEF7FEFC5010E94AC074C018201CB
:100CB000F32DFF773F2E16C0280122E0420E511C73
:100CC000F801A080B18036FE03C0692D70E002C03B
:100CD0006FEF7FEFC5010E94A1074C01F32DF06873
:100CE0003F2E820133FC1BC0822D90E088169906AE
:100CF000B0F4B60180E290E00E94B7072A94F4CFE6
:100D0000F50137FC859137FE81915F01B60190E0D6
:100D10000E94B70721102A9421E0821A91088114B9
:100D2000910471F7E8C0843611F0893641F5F80175
:100D300037FE07C060817181828193810C5F1F4FF4
:100D400008C060817181072E000C880B990B0E5F23
:100D50001F4FF32DFF763F2E97FF09C0909580958A
:100D6000709561957F4F8F4F9F4FF0683F2E2AE01F
:100D700030E0A3010E94F307882E861845C085370E
:100D800031F4232D2F7EB22E2AE030E025C0932DA2
:100D9000997FB92E8F36C1F018F4883579F0B5C037
:100DA000803719F0883721F0B0C0E92FE061BE2EFE
:100DB000B4FE0DC0FB2DF460BF2E09C034FE0AC086
:100DC000292F2660B22E06C028E030E005C020E1C1
:100DD00030E002C020E132E0F801B7FE07C06081D8
:100DE0007181828193810C5F1F4F06C06081718188
:100DF00080E090E00E5F1F4FA3010E94F307882E52
:100E00008618FB2DFF773F2E36FE0DC0232D2E7F3B
:100E1000A22E891458F434FE0BC032FC09C0832D75
:100E20008E7EA82E05C0B82CA32C03C0B82C01C000
:100E3000B92CA4FE0FC0FE01E80DF11D80818033A6
:100E400021F49A2D997EA92E09C0A2FE06C0B39462
:100E5000B39404C08A2D867809F0B394A3FC11C022
:100E6000A0FE06C0B21488F4280C922C9B180EC069
:100E7000B21460F4B60180E290E00E94B707B39428
:100E8000F7CFB21418F42B1802C0982C212CA4FE12
:100E900010C0B60180E390E00E94B707A2FE17C021
:100EA000A1FC03C088E790E002C088E590E0B601AD
:100EB0000CC08A2D867859F0A1FE02C08BE201C0D9
:100EC00080E2A7FC8DE2B60190E00E94B70789148A
:100ED00038F4B60180E390E00E94B7079A94F7CF08
:100EE0008A94F301E80DF11D8081B60190E00E9423
:100EF000B7078110F5CF222009F442CEB60180E277
:100F000090E00E94B7072A94F6CFF6018681978178
:100F100002C08FEF9FEF2B96CDBFDEBFDF91CF9149
:100F20001F910F91FF90EF90DF90CF90BF90AF9007
:100F30009F908F907F906F905F904F903F902F90F9
:100F40000895FC010590615070400110D8F780951C
:100F500090958E0F9F1F0895FC0161507040019085
:100F60000110D8F7809590958E0F9F1F08950F93CD
:100F70001F93CF93DF93FB01238121FD03C08FEFEC
:100F80009FEF2CC022FF16C04681578124813581F6
:100F90004217530744F4A081B1819D012F5F3F4F59
:100FA000208331838C93268137812F5F3F4F2683A7
:100FB000378314C08B01EC01FB010084F185E02D27
:100FC0001995892BE1F6D80116968D919C9117976A
:100FD000019616968D939C931797CE01DF91CF9132
:100FE0001F910F910895FA01AA27283051F120315D
:100FF00081F1E8946F936E7F6E5F7F4F8F4F9F4FAD
:10100000AF4FB1E03ED0B4E03CD0670F781F891FEE
:101010009A1FA11D680F791F8A1F911DA11D6A0FBC
:10102000711D811D911DA11D20D009F468943F916F
:101030002AE0269F11243019305D3193DEF6CF016E
:101040000895462F4770405D4193B3E00FD0C9F734
:10105000F6CF462F4F70405D4A3318F0495D31FDA1
:101060004052419302D0A9F7EACFB4E0A6959795F4
:10107000879577956795BA95C9F7009761057105CA
:1010800008959B01AC010A2E069457954795379514
:101090002795BA95C9F7620F731F841F951FA01D6E
:0610A0000895F894FFCF53
:1010A6000000442520000100020211020000000297
:1010B60000000000FA01000000000000E102F0025A
:1010C6000200C203B8036D637520726563656976B5
:1010D600652068616E646C65722077697468206447
:1010E6006174612073697A653A2025642062797497
:1010F60065730A00496E7374616C6C656400626C9A
:101106007565746F6F7468207265636569766520AE
:1011160068616E646C6572207769746820646174B6
:10112600612073697A653A20256420627974657353
:101136000A00746F75636820726563656976652059
:1011460068616E646C65723A2025630A0066726F88
:101156006D5F6D656D6F72795F6D61705B2A64613D
:0C11660074615D00576F726B696E67006A
:00000001FF
