:100000000C94FE000C9424010C9424010C94240103
:100010000C9424010C9424010C9424010C942401CC
:100020000C9424010C9424010C9424010C942401BC
:100030000C9424010C9424010C9424010C942401AC
:100040000C9424010C9424010C9424010C9424019C
:100050000C9424010C9424010C9424010C9424018C
:100060000C9424010C9456010C9424010C9424014A
:100070000C9424010C9424010C9424010C9424016C
:100080000C9424010C9424010C9424010C9424015C
:100090000C9424010C9424010C9424010C9424014C
:1000A0000C9424010C9424010C9424010C9424013C
:1000B0000C9424010C9424010C9424010C9424012C
:1000C0000C9424010C9424010C9424010C9424011C
:1000D0000C9424010C9424010C9424010C9424010C
:1000E0000C9424010C9424010C94A3010C9424017D
:1000F0000C9424010C9424010C9424010C942401EC
:100100000C9424010C9424010C9424010C942401DB
:100110000C9424010C9424010C9424010C942401CB
:100120000C9424010C9424010C9424010C942401BB
:100130000C9424010C9424010C9424010C942401AB
:100140000C9424010C9424010C9424010C9424019B
:100150000C9424010C9424010C9424010C9424018B
:100160000C9424010C9424010C9424010C9424017B
:100170000C9424010C9424010C9424010C9424016B
:100180000C9424010C9424010C9424010C9424015B
:100190000C9424010C9424010C9424010C9424014B
:1001A0000C9424010C9424010C9424010C9424013B
:1001B0000C9424010C9424010C9424010C9424012B
:1001C0000C9424010C9424010C9424010C9424011B
:1001D0000C9424010C9424010C9424010C9424010B
:1001E0000C9424010C9424010C9424010C942401FB
:1001F0000C9424010C9424010C94240111241FBE9E
:10020000CFEFCDBFDFE3DEBF00E00CBF18BE19BEED
:100210001ABE1BBE24E2A0E0B0E201C01D92A230D3
:10022000B207E1F710E2A0E0B0E2E4E9F3E000E0B9
:100230000BBF02C007900D92A030B107D9F71BBECB
:100240000E942B010C94C8010C9400000E947B01B9
:100250000E942E0108950E942601FFCFF894E0E449
:10026000F6E088E1838B828BA4E4B6E08C91886011
:100270008C938C9184608C9388E08583808384E068
:100280008283E0EAF8E083E085838381807C80617B
:1002900083831092A70882E28093A6088481807EDF
:1002A0008861848387E08093A20008951F920F9253
:1002B0000FB60F92112408B60F9218BE0BB60F920C
:1002C0001BBE8F93EF93FF938091A008E0910022D3
:1002D000EF5FE0930022F0E0E050F04E8083FF916A
:1002E000EF918F910F900BBE0F9008BE0F900FBE35
:1002F0000F901F901895F894E0E8F6E088E1838B62
:10030000828BA4E8B6E08C9188608C938C91846099
:100310008C9388E08583808384E08283E0EAFAE03E
:1003200083E085838381807C806183831092A7082A
:1003300082E28093A6088481807E8861848387E03E
:100340008093A20008951F920F920FB60F9211246E
:1003500008B60F9218BE0BB60F921BBE8F93EF9389
:10036000FF938091A00AE0910124EF5FE0930124C4
:10037000F0E0EF5FFD4D8083FF91EF918F910F9043
:100380000BBE0F9008BE0F900FBE0F901F901895D8
:04039000F894FFCF0F
:00000001FF
